{
  "contractName": "SupplyChain",
  "abi": [
    {
      "anonymous": false,
      "inputs": [
        {
          "indexed": false,
          "internalType": "uint256",
          "name": "index",
          "type": "uint256"
        }
      ],
      "name": "Added",
      "type": "event"
    },
    {
      "inputs": [
        {
          "internalType": "uint256",
          "name": "",
          "type": "uint256"
        }
      ],
      "name": "positions",
      "outputs": [
        {
          "internalType": "string",
          "name": "description",
          "type": "string"
        },
        {
          "internalType": "address",
          "name": "person",
          "type": "address"
        }
      ],
      "stateMutability": "view",
      "type": "function"
    },
    {
      "inputs": [
        {
          "internalType": "string",
          "name": "_a",
          "type": "string"
        },
        {
          "internalType": "string",
          "name": "_b",
          "type": "string"
        }
      ],
      "name": "concat",
      "outputs": [
        {
          "internalType": "string",
          "name": "",
          "type": "string"
        }
      ],
      "stateMutability": "nonpayable",
      "type": "function"
    },
    {
      "inputs": [
        {
          "internalType": "string",
          "name": "_text",
          "type": "string"
        },
        {
          "internalType": "string",
          "name": "_date",
          "type": "string"
        }
      ],
      "name": "newItem",
      "outputs": [
        {
          "internalType": "bool",
          "name": "",
          "type": "bool"
        }
      ],
      "stateMutability": "nonpayable",
      "type": "function"
    },
    {
      "inputs": [
        {
          "internalType": "uint256",
          "name": "_productId",
          "type": "uint256"
        },
        {
          "internalType": "string",
          "name": "info",
          "type": "string"
        }
      ],
      "name": "addState",
      "outputs": [
        {
          "internalType": "string",
          "name": "",
          "type": "string"
        }
      ],
      "stateMutability": "nonpayable",
      "type": "function"
    },
    {
      "inputs": [
        {
          "internalType": "uint256",
          "name": "_productId",
          "type": "uint256"
        }
      ],
      "name": "searchProduct",
      "outputs": [
        {
          "internalType": "string",
          "name": "",
          "type": "string"
        }
      ],
      "stateMutability": "nonpayable",
      "type": "function"
    }
  ],
  "bytecode": "0x6080604052600060025534801561001557600080fd5b50610f57806100256000396000f3fe608060405234801561001057600080fd5b50600436106100575760003560e01c80633cde01b51461005c578063453bccb61461008c57806389c19ddb146100bc57806399fbab88146100ec578063a3d835c01461011d575b600080fd5b610076600480360381019061007191906109cd565b61014d565b6040516100839190610a93565b60405180910390f35b6100a660048036038101906100a19190610bea565b610412565b6040516100b39190610a93565b60405180910390f35b6100d660048036038101906100d19190610c46565b610527565b6040516100e39190610a93565b60405180910390f35b610106600480360381019061010191906109cd565b6106bd565b604051610114929190610cff565b60405180910390f35b61013760048036038101906101329190610c46565b610789565b6040516101449190610d4a565b60405180910390f35b606060025482111561015e57600080fd5b60006040518060400160405280600e81526020017f50726f64756374204e616d653a20000000000000000000000000000000000000815250905061023f8160008086815260200190815260200160002060010180546101bc90610d94565b80601f01602080910402602001604051908101604052809291908181526020018280546101e890610d94565b80156102355780601f1061020a57610100808354040283529160200191610235565b820191906000526020600020905b81548152906001019060200180831161021857829003601f168201915b5050505050610527565b9050610280816040518060400160405280601681526020017f3c62723e4d616e756661637475726520446174653a2000000000000000000000815250610527565b90506103298160008086815260200190815260200160002060030180546102a690610d94565b80601f01602080910402602001604051908101604052809291908181526020018280546102d290610d94565b801561031f5780601f106102f45761010080835404028352916020019161031f565b820191906000526020600020905b81548152906001019060200180831161030257829003601f168201915b5050505050610527565b905060005b60008085815260200190815260200160002060040154811015610408576103f38260016000848152602001908152602001600020600001805461037090610d94565b80601f016020809104026020016040519081016040528092919081815260200182805461039c90610d94565b80156103e95780601f106103be576101008083540402835291602001916103e9565b820191906000526020600020905b8154815290600101906020018083116103cc57829003601f168201915b5050505050610527565b9150808061040090610df5565b91505061032e565b5080915050919050565b606060025483111561042357600080fd5b600060405180604001604052808481526020013373ffffffffffffffffffffffffffffffffffffffff168152509050806001600080600088815260200190815260200160002060040154815260200190815260200160002060008201518160000190805190602001906104979291906108e0565b5060208201518160010160006101000a81548173ffffffffffffffffffffffffffffffffffffffff021916908373ffffffffffffffffffffffffffffffffffffffff1602179055509050506001600080868152602001908152602001600020600401546105049190610e3e565b600080868152602001908152602001600020600401819055508291505092915050565b6060600083905060008390506000815183516105439190610e3e565b67ffffffffffffffff81111561055c5761055b610abf565b5b6040519080825280601f01601f19166020018201604052801561058e5781602001600182028036833780820191505090505b50905060008190506000805b8551811015610622578581815181106105b6576105b5610e94565b5b602001015160f81c60f81b8383806105cd90610df5565b9450815181106105e0576105df610e94565b5b60200101907effffffffffffffffffffffffffffffffffffffffffffffffffffffffffffff1916908160001a905350808061061a90610df5565b91505061059a565b5060005b84518110156106ae5784818151811061064257610641610e94565b5b602001015160f81c60f81b83838061065990610df5565b94508151811061066c5761066b610e94565b5b60200101907effffffffffffffffffffffffffffffffffffffffffffffffffffffffffffff1916908160001a90535080806106a690610df5565b915050610626565b50819550505050505092915050565b60016020528060005260406000206000915090508060000180546106e090610d94565b80601f016020809104026020016040519081016040528092919081815260200182805461070c90610d94565b80156107595780601f1061072e57610100808354040283529160200191610759565b820191906000526020600020905b81548152906001019060200180831161073c57829003601f168201915b5050505050908060010160009054906101000a900473ffffffffffffffffffffffffffffffffffffffff16905082565b6000806040518060a001604052803373ffffffffffffffffffffffffffffffffffffffff16815260200185815260200160025481526020018481526020016000815250905080600080600254815260200190815260200160002060008201518160000160006101000a81548173ffffffffffffffffffffffffffffffffffffffff021916908373ffffffffffffffffffffffffffffffffffffffff16021790555060208201518160010190805190602001906108469291906108e0565b5060408201518160020155606082015181600301908051906020019061086d9291906108e0565b5060808201518160040155905050600160025461088a9190610e3e565b6002819055507f64a55044d1f2eddebe1b90e8e2853e8e96931cefadbfa0b2ceb34bee3606194160016002546108c09190610ec3565b6040516108cd9190610f06565b60405180910390a1600191505092915050565b8280546108ec90610d94565b90600052602060002090601f01602090048101928261090e5760008555610955565b82601f1061092757805160ff1916838001178555610955565b82800160010185558215610955579182015b82811115610954578251825591602001919060010190610939565b5b5090506109629190610966565b5090565b5b8082111561097f576000816000905550600101610967565b5090565b6000604051905090565b600080fd5b600080fd5b6000819050919050565b6109aa81610997565b81146109b557600080fd5b50565b6000813590506109c7816109a1565b92915050565b6000602082840312156109e3576109e261098d565b5b60006109f1848285016109b8565b91505092915050565b600081519050919050565b600082825260208201905092915050565b60005b83811015610a34578082015181840152602081019050610a19565b83811115610a43576000848401525b50505050565b6000601f19601f8301169050919050565b6000610a65826109fa565b610a6f8185610a05565b9350610a7f818560208601610a16565b610a8881610a49565b840191505092915050565b60006020820190508181036000830152610aad8184610a5a565b905092915050565b600080fd5b600080fd5b7f4e487b7100000000000000000000000000000000000000000000000000000000600052604160045260246000fd5b610af782610a49565b810181811067ffffffffffffffff82111715610b1657610b15610abf565b5b80604052505050565b6000610b29610983565b9050610b358282610aee565b919050565b600067ffffffffffffffff821115610b5557610b54610abf565b5b610b5e82610a49565b9050602081019050919050565b82818337600083830152505050565b6000610b8d610b8884610b3a565b610b1f565b905082815260208101848484011115610ba957610ba8610aba565b5b610bb4848285610b6b565b509392505050565b600082601f830112610bd157610bd0610ab5565b5b8135610be1848260208601610b7a565b91505092915050565b60008060408385031215610c0157610c0061098d565b5b6000610c0f858286016109b8565b925050602083013567ffffffffffffffff811115610c3057610c2f610992565b5b610c3c85828601610bbc565b9150509250929050565b60008060408385031215610c5d57610c5c61098d565b5b600083013567ffffffffffffffff811115610c7b57610c7a610992565b5b610c8785828601610bbc565b925050602083013567ffffffffffffffff811115610ca857610ca7610992565b5b610cb485828601610bbc565b9150509250929050565b600073ffffffffffffffffffffffffffffffffffffffff82169050919050565b6000610ce982610cbe565b9050919050565b610cf981610cde565b82525050565b60006040820190508181036000830152610d198185610a5a565b9050610d286020830184610cf0565b9392505050565b60008115159050919050565b610d4481610d2f565b82525050565b6000602082019050610d5f6000830184610d3b565b92915050565b7f4e487b7100000000000000000000000000000000000000000000000000000000600052602260045260246000fd5b60006002820490506001821680610dac57607f821691505b60208210811415610dc057610dbf610d65565b5b50919050565b7f4e487b7100000000000000000000000000000000000000000000000000000000600052601160045260246000fd5b6000610e0082610997565b91507fffffffffffffffffffffffffffffffffffffffffffffffffffffffffffffffff821415610e3357610e32610dc6565b5b600182019050919050565b6000610e4982610997565b9150610e5483610997565b9250827fffffffffffffffffffffffffffffffffffffffffffffffffffffffffffffffff03821115610e8957610e88610dc6565b5b828201905092915050565b7f4e487b7100000000000000000000000000000000000000000000000000000000600052603260045260246000fd5b6000610ece82610997565b9150610ed983610997565b925082821015610eec57610eeb610dc6565b5b828203905092915050565b610f0081610997565b82525050565b6000602082019050610f1b6000830184610ef7565b9291505056fea2646970667358221220f57cea8b749f1fcf1d9249c21ef4d70b06523fa6429635b01091d81b693c4c1e64736f6c634300080a0033",
  "immutableReferences": {},
  "source": "pragma solidity ^0.8.10;\r\n\r\ncontract SupplyChain {\r\n    \r\n    event Added(uint256 index);\r\n    \r\n    struct State{\r\n        string description;\r\n        address person;\r\n    }\r\n    \r\n    struct Product{\r\n        address creator;\r\n        string productName;\r\n        uint256 productId;\r\n        string date;\r\n        uint256 totalStates;\r\n      //  mapping (uint256 => State) positions;\r\n    }\r\n    \r\n    mapping(uint => Product) allProducts;\r\n    mapping (uint256 => State) public positions;\r\n    \r\n    uint256 items=0;\r\n    \r\n    function concat(string memory _a, string memory _b) public returns (string memory){\r\n        bytes memory bytes_a = bytes(_a);\r\n        bytes memory bytes_b = bytes(_b);\r\n        string memory length_ab = new string(bytes_a.length + bytes_b.length);\r\n        bytes memory bytes_c = bytes(length_ab);\r\n        uint k = 0;\r\n        for (uint i = 0; i < bytes_a.length; i++) bytes_c[k++] = bytes_a[i];\r\n        for (uint i = 0; i < bytes_b.length; i++) bytes_c[k++] = bytes_b[i];\r\n        return string(bytes_c);\r\n    }\r\n    \r\n    function newItem(string memory _text, string memory _date) public returns (bool) {\r\n        Product memory newItem = Product({creator: msg.sender, totalStates: 0,productName: _text, productId: items, date: _date});\r\n        allProducts[items]=newItem;\r\n        items = items+1;\r\n        emit Added(items-1);\r\n        return true;\r\n    }\r\n    \r\n    function addState(uint _productId, string memory info) public returns (string memory) {\r\n        require(_productId<=items);\r\n        \r\n        State memory newState = State({person: msg.sender, description: info});\r\n        \r\n      positions[ allProducts[_productId].totalStates ]=newState;\r\n        \r\n        allProducts[_productId].totalStates = allProducts[_productId].totalStates +1;\r\n        return info;\r\n    }\r\n    \r\n    function searchProduct(uint _productId) public returns (string memory) {\r\n\r\n        require(_productId<=items);\r\n        string memory output=\"Product Name: \";\r\n        output=concat(output, allProducts[_productId].productName);\r\n        output=concat(output, \"<br>Manufacture Date: \");\r\n        output=concat(output, allProducts[_productId].date);\r\n        \r\n        for (uint256 j=0; j<allProducts[_productId].totalStates; j++){\r\n            output=concat(output, positions[j].description);\r\n        }\r\n        return output;\r\n        \r\n    }\r\n    \r\n}",
  "sourcePath": "C:\\Personal\\Polygon Hackthathon\\old supply chain code\\contracts\\Supplychain.sol",
  "compiler": {
    "name": "solc",
    "version": "0.8.10+commit.fc410830.Emscripten.clang"
  },
  "schemaVersion": "3.4.3",
  "updatedAt": "2021-12-12T12:47:16.083Z",
  "devdoc": {
    "kind": "dev",
    "methods": {},
    "version": 1
  },
  "userdoc": {
    "kind": "user",
    "methods": {},
    "version": 1
  }
}